:03000000020CBA35
:0C0CBA00787FE4F6D8FD758128020964FB
:100B3500460052004C005254004C4556454C3A2054
:100B45005341464520202020004C4556454C3A202F
:100B550043415554494F4E20004C4556454C3A208B
:100B650044414E4745522020004449523A00204412
:100B75003D00636D2000FF0B35FF0B37FF0B39FF81
:020B85000B3B28
:0E0C9000EF1FAC0670011E4C60030080F322C3
:070BBC00120C317F027E00E4
:100BC300E4FDFCC3ED9FEC9E5015E4FBFA0BBB0068
:0F0BD300010AEB647B4A70F50DBD00010C80E454
:010BE20022F0
:100C7E00D2A17F057E00120C90C2A17F327E0002AF
:020C8E000C90C8
:0C0C2500EDC4540FFF120C31ED540FFF12
:0C0C310053A00FEFC454F042A0020C7E50
:0E0C9E00AD07C2A0120C257F027E00020BC320
:0E0CAC00AD07D2A0120C257F027E00020BC302
:100B87007F147E00120BC3C2A07F03120C317F05B6
:100B97007E00120BC37F03120BBC0F120BBC120C8F
:100BA700317F28120C9E7F0C120C9E7F06120C9E22
:050BB7007F01020C9E0D
:100BE3008B188A19891AAB18AA19A91A1208F66060
:100BF30013051AE51A7002051914F91208F6FF1203
:050C03000CAC80E222B0
:040AD900AB07AA06B7
:100ADD00D3EB94E7EA940340047A037BE77C007D33
:100AED0064AF03AE0212090F8F187C007D0AAF03AD
:100AFD00AE0212090F7C007D0A12090F8D19AE028C
:100B0D00AF037C007D0A12090FA905E518600524C5
:100B1D0030FF80027F20120CACE5192430FF120C3F
:080B2D00ACE92430FF020CAC1E
:100C0800EF7005A200929022BF0105A200929222E5
:0D0C1800BF0205A200929422A20092962233
:100C5500EF7003A29122BF0103A29322BF0203A258
:050C65009522A2972278
:020A6C00AD07D4
:100A6E00C200120C087F027E00120C90AF05D2005D
:100A7E00120C087F0A7E00120C90AF05C200120CF9
:100A8E0008AF05120C5540F97B307A75AF05120C84
:100A9E0055400CEB1B70011A144A70F0FEFF22C277
:100AAE008C5389F0438901C28DE4F58CF58AD28C82
:100ABE00AF05120C555009308DF6C28CE4FEFF22A4
:0A0ACE00C28CAF8CEFFEAD8AEDFF85
:010AD80022FB
:100C6A00120A6CEF4E70057E017F90227C007D3A5D
:030C7A0012090F4D
:010C7D002254
:090CC600C2B0C2B1C2B2C2B32235
:100C3D00120CC6EF7003D2B022BF0103D2B122BF96
:080C4D000203D2B222D2B3224D
:10096400E4F50B780C7C00FD7BFF7A0B797BFE7F32
:100974000C1208D0120B87E4F9AF01120C6AE925B6
:10098400E02421F8A60608A6077F3C7E00120BC3CC
:1009940009B904E585210985220AE4F5087901E904
:1009A40025E02421F8E6FE08E6FFC3950AEE950942
:1009B40050068E098F0A890809B904E3C2B6C2B485
:1009C400C2B5C2B7120CC67F80120C9ED3E50A943E
:1009D4003CE5099400400D7BFF7A0B793E120BE352
:1009E400D2B68033D3E50A941EE50994007BFF4018
:1009F400167A0B794E120BE3D2B4AF08120C3DE514
:100A04000B24FF92B780107A0B795E120BE3D2B5F8
:100A1400AF08120C3DD2B77FC0120C9E7BFF7A0B3D
:100A2400796E120BE3E50875F003A4240CF8860331
:100A340008E6FA08E6F9120BE37BFF7A0B797312E6
:100A44000BE3AF0AAE09120AD97BFF7A0B7977124E
:100A54000BE3E50B70047F0180027F008F0B7F782E
:080A64007E00120BC302097BA6
:10080000E709F608DFFA8046E709F208DFFA803EDA
:1008100088828C83E709F0A3DFFA8032E309F608C7
:10082000DFFA8078E309F208DFFA807088828C832F
:10083000E309F0A3DFFA806489828A83E0A3F608E3
:10084000DFFA805889828A83E0A3F208DFFA804CBD
:1008500080D280FA80C680D4806980F28033801094
:1008600080A680EA809A80A880DA80E280CA8033FD
:1008700089828A83ECFAE493A3C8C582C8CCC58375
:10088000CCF0A3C8C582C8CCC583CCDFE9DEE78045
:100890000D89828A83E493A3F608DFF9ECFAA9F0C4
:1008A000EDFB2289828A83ECFAE0A3C8C582C8CC1A
:1008B000C583CCF0A3C8C582C8CCC583CCDFEADE33
:1008C000E880DB89828A83E493A3F208DFF980CC95
:1008D00088F0EF60010E4E60C388F0ED2402B4048E
:1008E0000050B9F582EB2402B4040050AF23234535
:0608F00082239008507302
:1008F600BB010689828A83E0225002E722BBFE0200
:09090600E32289828A83E4932232
:10090F00BC000BBE0029EF8DF084FFADF022E4CCCC
:10091F00F875F008EF2FFFEE33FEEC33FCEE9DEC95
:10092F00984005FCEE9DFE0FD5F0E9E4CEFD22EDDB
:10093F00F8F5F0EE8420D21CFEADF075F008EF2F25
:10094F00FFED33FD4007985006D5F0F222C398FD16
:05095F000FD5F0EA22B3
:00000001FF
